:020000040000FA
:0400000089EF09F08B
:1006000000010204002A2A2A2A2A2A2A2A2A2A2A15
:100610002A2A2A2A2A002D2D2D2D2D2D2D2D2D2D46
:100620002D2D2D2D2D2D004573636F6C686120617C
:10063000206D7573696361004F70203C313E206FFF
:1006400075203C323E200020202056416C454E440F
:100650004F212121002D2020504552464543542052
:10066000202D00283129202D204A554C4945544140
:10067000002020504C4159204755495441520028F0
:100680003229202D204D4F5A415254002020202045
:100690004A554C494554410020202020204D4F5AB6
:1006A0004152540020202057454C434F4D450054A3
:1006B0004F43414E444F3A2000504F4E54204D413D
:1006C000583A00564F43452046455A3A00202020CC
:1006D00042555A5A455200202050524F4E544F0016
:0506E000353030000080
:1006E600F19E0E0EC16E000E926E000E956E000EFD
:1006F600836E20EE4FF010EE17F0130EDBCFE3FF04
:10070600E806FCE2000E2E6E640E2D6E000E2C6EB8
:10071600000E2B6E0A0E056E000E066E000E076E9C
:10072600000E086E6DC001F06EC002F06FC003F0DF
:1007360070C004F07DEC08F001C00EF002C00FF0AE
:1007460003C010F004C011F00A0E126E000E136EF4
:10075600000E146E000E156ECFEC08F0D8900E3613
:100766000F36170E0E24D96E000E0F20DA6EDF50EC
:10077600836E808A80988096000E306E000E2F6EF3
:10078600C7EF03F02F4A302A2D502F5C2E503058D9
:10079600D8A0D0EF03F0D2EF03F0C5EF03F0640E5C
:1007A600056E000E066E000E076E000E086E6DC01A
:1007B60001F06EC002F06FC003F070C004F07DEC73
:1007C60008F001C00EF002C00FF003C010F004C024
:1007D60011F00A0E126E000E136E000E146E000E4D
:1007E600156ECFEC08F0D8900E360F36170E0E2485
:1007F600D96E000E0F20DA6EDF50836E809A8088E5
:100806008096000E306E000E2F6E0CEF04F02F4A0D
:10081600302A2D502F5C2E503058D8A015EF04F0FA
:1008260017EF04F00AEF04F0E80E056E030E066EED
:10083600000E076E000E086E6DC001F06EC002F06D
:100846006FC003F070C004F07DEC08F001C00EF03C
:1008560002C00FF003C010F004C011F00A0E126EB1
:10086600000E136E000E146E000E156ECFEC08F01F
:10087600D8900E360F36170E0E24D96E000E0F20A6
:10088600DA6EDF50836E809A80988086000E306E16
:10089600000E2F6E51EF04F02F4A302A2D502F5C98
:1008A6002E503058D8A05AEF04F05CEF04F04FEF0A
:1008B60004F0100E056E270E066E000E076E000E73
:1008C600086E6DC001F06EC002F06FC003F070C01C
:1008D60004F07DEC08F001C00EF002C00FF003C07A
:1008E60010F004C011F00A0E126E000E136E000E08
:1008F600146E000E156ECFEC08F0D8900E360F363B
:10090600170E0E24D96E000E0F20DA6EDF50836E9E
:10091600809A80988096000E306E000E2F6E96EFAD
:1009260004F02F4A302A2D502F5C2E503058D8A074
:100936009FEF04F0A1EF04F094EF04F02B4A2C2A69
:100946002CBEAFEF04F02C5009E1640E2B5CD8A04E
:10095600AFEF04F0B1EF04F08DEF03F01200000EDC
:100966000A6E000E096E000E0C6E81CF0BF063EF5F
:1009760005F0000E0D6E010E0D24F66EF76A060EDA
:10098600F7220800F550FF0A811283B6CDEF04F076
:10099600CFEF04F0E7EF04F0000E026E0F0E016ECB
:1009A6002DEC0AF083B6DAEF04F0DCEF04F0E7EFA3
:1009B60004F083A6E1EF04F0E3EF04F0DCEF04F0CB
:1009C6000D280C6E59EF05F083B4ECEF04F0EEEF52
:1009D60004F007EF05F0000E026E0F0E016E2DEC0F
:1009E6000AF083B4F9EF04F0FBEF04F007EF05F02B
:1009F60083A400EF05F002EF05F0FBEF04F00D50C5
:100A0600040F0C6E59EF05F083B20CEF05F00EEFF4
:100A160005F027EF05F0000E026E0F0E016E2DECAD
:100A26000AF083B219EF05F01BEF05F027EF05F08A
:100A360083A220EF05F022EF05F01BEF05F00D5025
:100A4600070F0C6E59EF05F083B02CEF05F02EEF73
:100A560005F047EF05F0000E026E0F0E016E2DEC4D
:100A66000AF083B039EF05F03BEF05F047EF05F0EC
:100A760083A040EF05F042EF05F03BEF05F00D5087
:100A86000A0F0C6E59EF05F0010E0D24F66EF76A8B
:100A9600060EF7220800F55081160D2A020E0D6487
:100AA60057EF05F059EF05F0BEEF04F0000E026EA9
:100AB600050E016E2DEC0AF0050E0926000E0A221F
:100AC6000750095C08500A58D8A06CEF05F06EEF85
:100AD60005F077EF05F007500810D8A475EF05F07C
:100AE60077EF05F07FEF05F00C50D8B47DEF05F0F9
:100AF6007FEF05F0BCEF04F00C50D8A485EF05F0AD
:100B060087EF05F088EF05F00C680B0E0C18D8A4DB
:100B16008FEF05F091EF05F093EF05F0000E0C6EE8
:100B26000BC081FF0C501200060EC16E000E936EB4
:100B3600000E956E000E966E20EEE5F010EEA8F013
:100B4600130EDBCFE3FFE806FCE220EED1F010EE59
:100B560080F0130EDBCFE3FFE806FCE220EE3BF06D
:100B660010EEBCF0130EDBCFE3FFE806FCE221EE4D
:100B760000F010EE94F0130EDBCFE3FFE806FCE284
:100B86005FEC0AF0010EE3EC0AF0800EE3EC0AF0EB
:100B9600A40E086E060E096E13EC09F0C00EE3EC07
:100BA6000AF0160E086E060E096E13EC09F0900E8A
:100BB600E3EC0AF0710E086E060E096E13EC09F0EE
:100BC600030E026EE80E016E2DEC0AF0010EE3EC48
:100BD6000AF0800EE3EC0AF0270E086E060E096E88
:100BE60013EC09F0C00EE3EC0AF0630E086E060E75
:100BF600096E13EC09F0900EE3EC0AF07F0E086E16
:100C0600060E096E13EC09F0D00EE3EC0AF0050EA1
:100C1600086E060E096E13EC09F00F0E956E000EA7
:100C2600086E000E076EB2EC04F0300F0001D06FB4
:100C3600000E956E310ED019D8B424EF06F026EFCB
:100C460006F02FEF06F0320ED019D8A42DEF06F0DD
:100C56002FEF06F05AEF06F0310ED019D8A436EF72
:100C660006F038EF06F04AEF06F0BC0E316E000EC5
:100C7600326E940E336E000E346E000E366E010E1A
:100C8600356E70EC06F013EC08F0E3EF05F0A80EF5
:100C9600316E000E326E800E336E000E346E000E14
:100CA600366E020E356E70EC06F046EF06F0010E5B
:100CB600E3EC0AF0D00EE3EC0AF00001D051CEECE2
:100CC6000AF0900EE3EC0AF0380E086E060E096E76
:100CD60013EC09F0E3EF05F01200000E816E000E32
:100CE600836E000E6D6E000E6E6E000E6F6E000E41
:100CF600706E35C00DF036C00EF0A2EC07F08DEC2C
:100D06000AF0010EE3EC0AF0C00EE3EC0AF0AF0EB7
:100D1600086E060E096E13EC09F0900EE3EC0AF06D
:100D260035043610D8A49AEF06F09CEF06F0A4EF2F
:100D360006F08E0E086E060E096E13EC09F0AAEF89
:100D460006F09B0E086E060E096E13EC09F0000EF7
:100D5600816E000E3A6E000E816E3A503124D96EC5
:100D6600000E3220DA6EDF50376E010E386E372AEB
:100D7600BFEF06F0D8903836372EBDEF06F0385064
:100D86008112030E026EE80E016E2DEC0AF03A5047
:100D96003124D96E000E3220DA6EDF50376E010E26
:100DA600386E372AD9EF06F0D8903836372ED7EF77
:100DB60006F03850FF0A8116030E026EE80E016E29
:100DC6002DEC0AF0000E816E0F0E956E030E086E66
:100DD600E80E076EB2EC04F0300F396E000E956E19
:100DE6003A503324D96E000E3420DA6E3950DE18AC
:100DF600D8A400EF07F002EF07F010EF07F0FA0EA5
:100E06006D26000E6E226F22702273EC03F035C041
:100E16000DF036C00EF0C2EC09F03F0E816E3F0EAB
:100E2600836E3A2A130E3A641BEF07F01DEF07F0A4
:100E3600AEEF06F012000DC006F00EC007F0270E4A
:100E4600096E100E086E4FEC09F00650300F0FC0F9
:100E5600D9FF10C0DAFFDF6E20EE01F00F50D92661
:100E66001050DA22270E046E100E036E0DC001F02C
:100E76000EC002F0FBEC09F001C006F002C007F05C
:100E8600030E096EE80E086E4FEC09F00650300F9F
:100E9600DF6E20EE02F00F50D9261050DA22030E34
:100EA600046EE80E036E0DC001F00EC002F0FBECFE
:100EB60009F001C006F002C007F0000E096E640ECC
:100EC600086E4FEC09F00650300FDF6E20EE03F08F
:100ED6000F50D9261050DA22000E046E640E036EEF
:100EE6000DC001F00EC002F0FBEC09F001C006F0E7
:100EF60002C007F0000E096E0A0E086E4FEC09F0EC
:100F06000650300FDF6E20EE04F00F50D926105039
:100F1600DA220DC001F00EC002F0000E046E0A0EB9
:100F2600036EFBEC09F00150300FDF6E20EE05F08A
:100F36000F50D9261050DA22000EDF6E1200000E76
:100F4600846E010EE3EC0AF0800EE3EC0AF00D0469
:100F56000E10D8A4B1EF07F0B3EF07F0BBEF07F020
:100F66008C0E086E060E096E13EC09F0C1EF07F041
:100F7600980E086E060E096E13EC09F0030E026E4B
:100F8600E80E016E2DEC0AF0D00EE3EC0AF0160E18
:100F9600086E060E096E13EC09F0000E0F6E000EB9
:100FA600026E960E016E2DEC0AF0180EE3EC0AF0B6
:100FB6000F2A030E0F64E2EF07F0E4EF07F0D2EF1B
:100FC60007F0000E0F6E000E026E960E016E2DECEF
:100FD6000AF01C0EE3EC0AF00F2A030E0F64F6EF7C
:100FE60007F0F8EF07F0E6EF07F0000E0F6E000EC1
:100FF600026E960E016E2DEC0AF0180EE3EC0AF066
:101006000F2A030E0F640AEF08F00CEF08F0FAEF50
:1010160007F0030E026EE80E016E2DEC0AF01200C8
:101026006DC001F06EC002F06FC003F070C004F036
:101036000A0E056E000E066E000E076E000E086E96
:101046007DEC08F001C06DF002C06EF003C06FF0D9
:1010560004C070F06DC00DF06EC00EF0110E0F6E74
:10106600000E106E1EEC07F0010EE3EC0AF0F40E13
:101076006D1808E16E046F107010D8A445EF08F0E3
:1010860047EF08F052EF08F0900EE3EC0AF0550E29
:10109600086E060E096E13EC09F076EF08F0800E66
:1010A600E3EC0AF0C30E086E060E096E13EC09F0A7
:1010B600C00EE3EC0AF0110E086E000E096E13EC7A
:1010C60009F0900EE3EC0AF0B90E086E060E096EF2
:1010D60013EC09F0D00EE3EC0AF0E00E086E060EF3
:1010E600096E13EC09F00B0E026EB80E016E2DECB4
:1010F6000AF01200000E096E000E0A6E000E0B6E4C
:10110600000E0C6E0550061007100810D8B48EEFAE
:1011160008F090EF08F0C6EF08F0010E0D6E9AEF9A
:1011260008F0D89005360636073608360D2A08AE7A
:101136009FEF08F0A1EF08F094EF08F0D890093679
:101146000A360B360C360550015C0650025807501D
:10115600035808500458D8A0B3EF08F0B5EF08F0CC
:10116600BEEF08F00550015E0650025A0750035ABA
:101176000850045A0980D8900832073206320532E0
:101186000D2EA1EF08F009C001F00AC002F00BC055
:1011960003F00CC004F012001250131014101510B6
:1011A600D8B4D8EF08F0DAEF08F00AEF09F0010E2C
:1011B600166EE4EF08F0D89012361336143615364C
:1011C600162A15AEE9EF08F0EBEF08F0DEEF08F0AF
:1011D60012500E5C13500F581450105815501158D9
:1011E600D8A0F8EF08F0FAEF08F002EF09F0125075
:1011F6000E5E13500F5A1450105A1550115AD890AB
:101206001532143213321232162EEBEF08F00EC0DE
:101216000EF00FC00FF010C010F011C011F0120048
:10122600000E0C6E30EF09F00C5008240A6E000E0A
:1012360009200B6E0AC0F6FF0BC0F7FFF86A050E11
:10124600F76403D00800F55005D0F6CFE9FFF7CFD5
:10125600EAFFEF50CEEC0AF00C2A0C5008240A6E76
:10126600000E09200B6E0AC0F6FF0BC0F7FFF86AE6
:10127600050EF76403D00800F55005D0F6CFE9FF58
:10128600F7CFEAFFEF500009D8A44CEF09F04EEF74
:1012960009F017EF09F01200000E0B6E000E0A6E31
:1012A60008500910D8B45AEF09F05CEF09F084EF42
:1012B60009F0010E0C6E64EF09F0D8900836093675
:1012C6000C2A09AE69EF09F06BEF09F060EF09F03F
:1012D600D8900A360B360850065C09500758D8A035
:1012E60077EF09F079EF09F07EEF09F00850065E16
:1012F6000950075A0A80D890093208320C2E6BEF33
:1013060009F00AC006F00BC007F01200180EF66EC0
:10131600160EF76E000EF86E01EE00F010EE14F0E9
:101326000900F5CFEEFFE550E150FAE1F00EF66E5A
:10133600150EF76E000EF86E00EED1F010EE28F0E6
:101346000900F5CFEEFFE550E150FAE16A0EF66EC0
:10135600150EF76E000EF86E00EE3BF010EE32F052
:101366000900F5CFEEFFE550E150FAE1706A6F6AC9
:101376006E6A6D6A000EF86E000116EF0BF0010E34
:10138600E3EC0AF0900EE3EC0AF0CD0E086E060EC2
:10139600096E13EC09F0030E026EE80E016E2DECD9
:1013A6000AF0010EE3EC0AF0C00EE3EC0AF0AF0E11
:1013B600086E060E096E13EC09F0900EE3EC0AF0C7
:1013C6000D040E10D8A4EAEF09F0ECEF09F0F4EFE3
:1013D60009F08E0E086E060E096E13EC09F0FAEF90
:1013E60009F09B0E086E060E096E13EC09F012004A
:1013F60003500410D8B402EF0AF004EF0AF028EF05
:101406000AF0010E056E0CEF0AF0D890033604368A
:10141600052A04AE11EF0AF013EF0AF008EF0AF0FE
:101426000350015C04500258D8A01CEF0AF01EEFCE
:101436000AF022EF0AF00350015E0450025AD890D7
:1014460004320332052E13EF0AF001C001F002C088
:1014560002F01200000E046E000E036E53EF0AF047
:10146600000E056E280E05643BEF0AF03DEF0AF00C
:101476003FEF0AF051EF0AF0000E066E020E066408
:1014860047EF0AF049EF0AF04BEF0AF04EEF0AF089
:10149600062A41EF0AF0052A35EF0AF0034A042A24
:1014A6000150035C02500458D8A05CEF0AF05EEFCE
:1014B6000AF033EF0AF0120084928494000E026E52
:1014C600140E016E2DEC0AF08482380EE3EC0AF05D
:1014D600000E026E050E016E2DEC0AF0380EE3ECDE
:1014E6000AF0000E026E010E016E2DEC0AF0380EA7
:1014F600E3EC0AF0080EE3EC0AF00F0EE3EC0AF058
:10150600010EE3EC0AF0380EE3EC0AF0800EE3EC91
:101516000AF01200010EE3EC0AF0900EE3EC0AF07A
:10152600D70E086E060E096E13EC09F0D00EE3EC2A
:101536000AF0010E026EF40E016E2DEC0AF0010E99
:10154600E3EC0AF0470E086E060E096E13EC09F07E
:10155600020E026EEE0E016E2DEC0AF0010EE3ECA9
:101566000AF0120001010305040202020304050544
:1015760002010303040101053F0006005B004F0062
:1015860066006D007D0007007F006F000F000500FC
:10159600E80396001400076E848207501AEC0BF0DD
:1015A6008484000E026E030E016E2DEC0AF0849206
:1015B600000E026E030E016E2DEC0AF084821200FC
:1015C600076E848207501AEC0BF08494000E026EAC
:1015D600030E016E2DEC0AF08492000E026E030ECD
:1015E600016E2DEC0AF0848212003234333531322A
:1015F600333431313234333132313233323402041E
:1016060003050102030401010204030102010203AE
:1016160002043131333534323232333435353231F6
:1016260033333431313597EC05F000EF00F0016EBD
:0616360001C083FF120059
:020000040020DA
:08000000FFFFFFFFFFFFFFFF00
:020000040030CA
:0E000000FF021F00FF8381FF0FC00FE00F40C3
:00000001FF
